{
  "_format": "hh-sol-artifact-1",
  "contractName": "Voting",
  "sourceName": "contracts/Voting.sol",
  "abi": [
    {
      "inputs": [],
      "stateMutability": "nonpayable",
      "type": "constructor"
    },
    {
      "inputs": [
        {
          "internalType": "string",
          "name": "_name",
          "type": "string"
        },
        {
          "internalType": "string",
          "name": "_imageCID",
          "type": "string"
        }
      ],
      "name": "addCandidate",
      "outputs": [],
      "stateMutability": "nonpayable",
      "type": "function"
    },
    {
      "inputs": [],
      "name": "candidateCount",
      "outputs": [
        {
          "internalType": "uint256",
          "name": "",
          "type": "uint256"
        }
      ],
      "stateMutability": "view",
      "type": "function"
    },
    {
      "inputs": [
        {
          "internalType": "uint256",
          "name": "",
          "type": "uint256"
        }
      ],
      "name": "candidates",
      "outputs": [
        {
          "internalType": "string",
          "name": "name",
          "type": "string"
        },
        {
          "internalType": "string",
          "name": "imageCID",
          "type": "string"
        },
        {
          "internalType": "uint256",
          "name": "voteCount",
          "type": "uint256"
        }
      ],
      "stateMutability": "view",
      "type": "function"
    },
    {
      "inputs": [
        {
          "internalType": "address",
          "name": "",
          "type": "address"
        }
      ],
      "name": "hasVoted",
      "outputs": [
        {
          "internalType": "bool",
          "name": "",
          "type": "bool"
        }
      ],
      "stateMutability": "view",
      "type": "function"
    },
    {
      "inputs": [],
      "name": "owner",
      "outputs": [
        {
          "internalType": "address",
          "name": "",
          "type": "address"
        }
      ],
      "stateMutability": "view",
      "type": "function"
    },
    {
      "inputs": [
        {
          "internalType": "uint256",
          "name": "_candidateId",
          "type": "uint256"
        }
      ],
      "name": "vote",
      "outputs": [],
      "stateMutability": "nonpayable",
      "type": "function"
    }
  ],
  "bytecode": "0x60806040526000600255348015601457600080fd5b5033600360006101000a81548173ffffffffffffffffffffffffffffffffffffffff021916908373ffffffffffffffffffffffffffffffffffffffff160217905550610e67806100656000396000f3fe608060405234801561001057600080fd5b50600436106100625760003560e01c80630121b93f1461006757806309eef43e1461008357806326541b56146100b35780633477ee2e146100cf5780638da5cb5b14610101578063a9a981a31461011f575b600080fd5b610081600480360381019061007c919061057a565b61013d565b005b61009d60048036038101906100989190610605565b610295565b6040516100aa919061064d565b60405180910390f35b6100cd60048036038101906100c891906107ae565b6102b5565b005b6100e960048036038101906100e4919061057a565b6103ca565b6040516100f8939291906108b4565b60405180910390f35b610109610504565b6040516101169190610908565b60405180910390f35b61012761052a565b6040516101349190610923565b60405180910390f35b600160003373ffffffffffffffffffffffffffffffffffffffff1673ffffffffffffffffffffffffffffffffffffffff16815260200190815260200160002060009054906101000a900460ff16156101ca576040517f08c379a00000000000000000000000000000000000000000000000000000000081526004016101c19061098a565b60405180910390fd5b600254811061020e576040517f08c379a0000000000000000000000000000000000000000000000000000000008152600401610205906109f6565b60405180910390fd5b60018060003373ffffffffffffffffffffffffffffffffffffffff1673ffffffffffffffffffffffffffffffffffffffff16815260200190815260200160002060006101000a81548160ff0219169083151502179055506001600080838152602001908152602001600020600201600082825461028b9190610a45565b9250508190555050565b60016020528060005260406000206000915054906101000a900460ff1681565b600360009054906101000a900473ffffffffffffffffffffffffffffffffffffffff1673ffffffffffffffffffffffffffffffffffffffff163373ffffffffffffffffffffffffffffffffffffffff1614610345576040517f08c379a000000000000000000000000000000000000000000000000000000000815260040161033c90610aeb565b60405180910390fd5b604051806060016040528083815260200182815260200160008152506000806002548152602001908152602001600020600082015181600001908161038a9190610d17565b5060208201518160010190816103a09190610d17565b5060408201518160020155905050600260008154809291906103c190610de9565b91905055505050565b60006020528060005260406000206000915090508060000180546103ed90610b3a565b80601f016020809104026020016040519081016040528092919081815260200182805461041990610b3a565b80156104665780601f1061043b57610100808354040283529160200191610466565b820191906000526020600020905b81548152906001019060200180831161044957829003601f168201915b50505050509080600101805461047b90610b3a565b80601f01602080910402602001604051908101604052809291908181526020018280546104a790610b3a565b80156104f45780601f106104c9576101008083540402835291602001916104f4565b820191906000526020600020905b8154815290600101906020018083116104d757829003601f168201915b5050505050908060020154905083565b600360009054906101000a900473ffffffffffffffffffffffffffffffffffffffff1681565b60025481565b6000604051905090565b600080fd5b600080fd5b6000819050919050565b61055781610544565b811461056257600080fd5b50565b6000813590506105748161054e565b92915050565b6000602082840312156105905761058f61053a565b5b600061059e84828501610565565b91505092915050565b600073ffffffffffffffffffffffffffffffffffffffff82169050919050565b60006105d2826105a7565b9050919050565b6105e2816105c7565b81146105ed57600080fd5b50565b6000813590506105ff816105d9565b92915050565b60006020828403121561061b5761061a61053a565b5b6000610629848285016105f0565b91505092915050565b60008115159050919050565b61064781610632565b82525050565b6000602082019050610662600083018461063e565b92915050565b600080fd5b600080fd5b6000601f19601f8301169050919050565b7f4e487b7100000000000000000000000000000000000000000000000000000000600052604160045260246000fd5b6106bb82610672565b810181811067ffffffffffffffff821117156106da576106d9610683565b5b80604052505050565b60006106ed610530565b90506106f982826106b2565b919050565b600067ffffffffffffffff82111561071957610718610683565b5b61072282610672565b9050602081019050919050565b82818337600083830152505050565b600061075161074c846106fe565b6106e3565b90508281526020810184848401111561076d5761076c61066d565b5b61077884828561072f565b509392505050565b600082601f83011261079557610794610668565b5b81356107a584826020860161073e565b91505092915050565b600080604083850312156107c5576107c461053a565b5b600083013567ffffffffffffffff8111156107e3576107e261053f565b5b6107ef85828601610780565b925050602083013567ffffffffffffffff8111156108105761080f61053f565b5b61081c85828601610780565b9150509250929050565b600081519050919050565b600082825260208201905092915050565b60005b83811015610860578082015181840152602081019050610845565b60008484015250505050565b600061087782610826565b6108818185610831565b9350610891818560208601610842565b61089a81610672565b840191505092915050565b6108ae81610544565b82525050565b600060608201905081810360008301526108ce818661086c565b905081810360208301526108e2818561086c565b90506108f160408301846108a5565b949350505050565b610902816105c7565b82525050565b600060208201905061091d60008301846108f9565b92915050565b600060208201905061093860008301846108a5565b92915050565b7f596f75206861766520616c726561647920766f7465642e000000000000000000600082015250565b6000610974601783610831565b915061097f8261093e565b602082019050919050565b600060208201905081810360008301526109a381610967565b9050919050565b7f496e76616c6964652043616e6469646174650000000000000000000000000000600082015250565b60006109e0601283610831565b91506109eb826109aa565b602082019050919050565b60006020820190508181036000830152610a0f816109d3565b9050919050565b7f4e487b7100000000000000000000000000000000000000000000000000000000600052601160045260246000fd5b6000610a5082610544565b9150610a5b83610544565b9250828201905080821115610a7357610a72610a16565b5b92915050565b7f6f6e6c7920746865206f776e65722063616e2063616c6c20746869732066756e60008201527f6374696f6e2e0000000000000000000000000000000000000000000000000000602082015250565b6000610ad5602683610831565b9150610ae082610a79565b604082019050919050565b60006020820190508181036000830152610b0481610ac8565b9050919050565b7f4e487b7100000000000000000000000000000000000000000000000000000000600052602260045260246000fd5b60006002820490506001821680610b5257607f821691505b602082108103610b6557610b64610b0b565b5b50919050565b60008190508160005260206000209050919050565b60006020601f8301049050919050565b600082821b905092915050565b600060088302610bcd7fffffffffffffffffffffffffffffffffffffffffffffffffffffffffffffffff82610b90565b610bd78683610b90565b95508019841693508086168417925050509392505050565b6000819050919050565b6000610c14610c0f610c0a84610544565b610bef565b610544565b9050919050565b6000819050919050565b610c2e83610bf9565b610c42610c3a82610c1b565b848454610b9d565b825550505050565b600090565b610c57610c4a565b610c62818484610c25565b505050565b5b81811015610c8657610c7b600082610c4f565b600181019050610c68565b5050565b601f821115610ccb57610c9c81610b6b565b610ca584610b80565b81016020851015610cb4578190505b610cc8610cc085610b80565b830182610c67565b50505b505050565b600082821c905092915050565b6000610cee60001984600802610cd0565b1980831691505092915050565b6000610d078383610cdd565b9150826002028217905092915050565b610d2082610826565b67ffffffffffffffff811115610d3957610d38610683565b5b610d438254610b3a565b610d4e828285610c8a565b600060209050601f831160018114610d815760008415610d6f578287015190505b610d798582610cfb565b865550610de1565b601f198416610d8f86610b6b565b60005b82811015610db757848901518255600182019150602085019450602081019050610d92565b86831015610dd45784890151610dd0601f891682610cdd565b8355505b6001600288020188555050505b505050505050565b6000610df482610544565b91507fffffffffffffffffffffffffffffffffffffffffffffffffffffffffffffffff8203610e2657610e25610a16565b5b60018201905091905056fea2646970667358221220ab546668946440c04f11339843471865f7f4b7b1c94a4256a24703221279ceda64736f6c634300081c0033",
  "linkReferences": {},
  "deployedLinkReferences": {}
}